{
  "contractName": "Ownable",
  "abi": [
    {
      "constant": true,
      "inputs": [],
      "name": "owner",
      "outputs": [
        {
          "name": "",
          "type": "address"
        }
      ],
      "payable": false,
      "stateMutability": "view",
      "type": "function"
    },
    {
      "inputs": [],
      "payable": false,
      "stateMutability": "nonpayable",
      "type": "constructor"
    },
    {
      "constant": false,
      "inputs": [
        {
          "name": "newOwner",
          "type": "address"
        }
      ],
      "name": "transferOwnership",
      "outputs": [],
      "payable": false,
      "stateMutability": "nonpayable",
      "type": "function"
    }
  ],
  "bytecode": "0x608060405234801561001057600080fd5b50336000806101000a81548173ffffffffffffffffffffffffffffffffffffffff021916908373ffffffffffffffffffffffffffffffffffffffff1602179055506101da806100606000396000f30060806040526004361061004c576000357c0100000000000000000000000000000000000000000000000000000000900463ffffffff1680638da5cb5b14610051578063f2fde38b146100a8575b600080fd5b34801561005d57600080fd5b506100666100eb565b604051808273ffffffffffffffffffffffffffffffffffffffff1673ffffffffffffffffffffffffffffffffffffffff16815260200191505060405180910390f35b3480156100b457600080fd5b506100e9600480360381019080803573ffffffffffffffffffffffffffffffffffffffff169060200190929190505050610110565b005b6000809054906101000a900473ffffffffffffffffffffffffffffffffffffffff1681565b6000809054906101000a900473ffffffffffffffffffffffffffffffffffffffff1673ffffffffffffffffffffffffffffffffffffffff163373ffffffffffffffffffffffffffffffffffffffff1614151561016b57600080fd5b806000806101000a81548173ffffffffffffffffffffffffffffffffffffffff021916908373ffffffffffffffffffffffffffffffffffffffff160217905550505600a165627a7a72305820fc0644937c245d49c00bf83304e10542a9b8f7099abbe35e0f58dd2d6aea71e30029",
  "source": "pragma solidity ^0.4.18;\n \ncontract Ownable {\n    \n    address public owner;\n    \n    function Ownable() public {\n        owner = msg.sender;\n    }\n \n    modifier onlyOwner() {\n        require(msg.sender == owner);\n        _;\n    }\n \n    function transferOwnership(address newOwner) public onlyOwner {\n        owner = newOwner;\n    }\n    \n}\n \ncontract Coin is Ownable {\n    \n    string public constant name = \"Simple Coin Token\";\n    \n    string public constant symbol = \"SCT\";\n    \n    uint32 public constant decimals = 18;\n    \n    uint public totalSupply = 0;\n    \n    mapping (address => uint) balances;\n    \n    mapping (address => mapping(address => uint)) allowed;\n    \n    function mint(address _to, uint _value) public onlyOwner {\n        assert(totalSupply + _value >= totalSupply && balances[_to] + _value >= balances[_to]);\n        balances[_to] += _value;\n        totalSupply += _value;\n    }\n    \n    function balanceOf(address _owner) public constant returns (uint balance) {\n        return balances[_owner];\n    }\n \n    function transfer(address _to, uint _value) public returns (bool success) {\n        if(balances[msg.sender] >= _value && balances[_to] + _value >= balances[_to]) {\n            balances[msg.sender] -= _value; \n            balances[_to] += _value;\n            Transfer(msg.sender, _to, _value);\n            return true;\n        } \n        return false;\n    }\n    \n    function transferFrom(address _from, address _to, uint _value) public returns (bool success) {\n        if( allowed[_from][msg.sender] >= _value &&\n            balances[_from] >= _value \n            && balances[_to] + _value >= balances[_to]) {\n            allowed[_from][msg.sender] -= _value;\n            balances[_from] -= _value; \n            balances[_to] += _value;\n            Transfer(_from, _to, _value);\n            return true;\n        } \n        return false;\n    }\n    \n    function approve(address _spender, uint _value) public returns (bool success) {\n        allowed[msg.sender][_spender] = _value;\n        Approval(msg.sender, _spender, _value);\n        return true;\n    }\n    \n    function allowance(address _owner, address _spender) public constant returns (uint remaining) {\n        return allowed[_owner][_spender];\n    }\n    \n    event Transfer(address indexed _from, address indexed _to, uint _value);\n    \n    event Approval(address indexed _owner, address indexed _spender, uint _value);\n    \n}\n",
  "sourcePath": "/home/alexey/Документы/Learning/VironIT/Blockchain/contracts/Coin.sol",
  "compiler": {
    "name": "solc",
    "version": "0.4.24+commit.e67f0147.Emscripten.clang"
  },
  "schemaVersion": "2.0.0",
  "updatedAt": "2018-06-05T14:28:07.111Z"
}